:020000040800F2
:10000000001A00201902000821020008230200083B
:10001000250200082702000829020008000000004D
:100020000000000000000000000000002B0200089B
:100030002D020008000000002F0200087B38000895
:1000400033020008330200083302000833020008BC
:1000500033020008330200083302000833020008AC
:10006000330200083302000833020008330200089C
:10007000330200083302000833020008330200088C
:10008000330200083302000833020008330200087C
:100090002F820008330200083302000833020008F0
:1000A000330200083302000833020008330200085C
:1000B000330200083302000833020008330200084C
:1000C000330200083302000833020008330200083C
:1000D0003302000827150008DD4F0008E749000833
:1000E00033020008330200083782000800F002F8EB
:1000F00000F060F80AA090E8000C82448344AAF162
:100100000107DA4501D100F055F8AFF2090EBAE85F
:100110000F0013F0010F18BFFB1A43F0010318473B
:1001200028A7000048A700000A444FF0000C10F870
:10013000013B13F0070408BF10F8014B1D1108BF65
:1001400010F8015B641E05D010F8016B641E01F805
:10015000016BF9D113F0080F1EBF10F8014BAD1C55
:100160000C1B09D16D1E58BF01F801CBFAD505E073
:1001700014F8016B01F8016B6D1EF9D59142D6D3CD
:10018000704700000023002400250026103A28BFF5
:1001900078C1FBD8520728BF30C148BF0B607047F9
:1001A0001FB59DE8030009F0E1FD09F0A4FC1FBDA7
:1001B00010B510BD09F036FE1146FFF7F1FF01F052
:1001C0006FF809F054FE03B4FFF7F2FF03BC09F027
:1001D00085FE0000EFF3108072B6704780F3108840
:1001E000704700000B49D1F800C04A685CF8043B36
:1001F0001068184442F8040B8C4528BFA1F1DC0CB0
:100200008A4228BFA1F1DC02C1F800C04A6020F098
:100210000040704794130020094880470948004770
:10022000FEE7FEE7FEE7FEE7FEE7FEE7FEE7FEE7A6
:10023000FEE7FEE704480549054A064B7047000003
:1002400037030008ED00000800140020001A002009
:1002500000160020001600200CB500200190009030
:100260006D48006840F480306B49086000BF6A4800
:10027000006800F4003000900198401C0190009844
:1002800018B90198B0F5A06FF1D16348006800F487
:10029000003010B10120009001E000200090009893
:1002A000012843D15D48006840F010005B490860B8
:1002B0000846006820F0030008600846006840F027
:1002C0000200086054484068534948600846406846
:1002D00048600846406840F48060486008464068CE
:1002E00020F47C1048600846406840F4E8104860FC
:1002F0000846006840F08070086000BF464800680B
:1003000000F000700028F9D04348406820F0030056
:10031000414948600846406840F00200486000BF1C
:100320003D48406800F00C000828F9D10CBD10B51C
:10033000FFF792FF10BD10B53748006840F001008C
:1003400035490860084640683549084032494860E8
:1003500008460068334908402F490860084600688D
:1003600020F4802008600846406820F4FE004860C1
:100370004FF41F008860FFF7DAFF4FF000602A4952
:1003800008602A48091D086010BD10B50021002032
:100390000022214B5B6803F00C0121B1042906D037
:1003A000082928D107E0224B224C236027E0204B6C
:1003B000204C236023E0184B5B6803F47010164B4D
:1003C0005B6803F48032022303EB904022B91A4B9E
:1003D0004343184C23600DE00F4B5B6803F400337C
:1003E00023B1154B4343134C236003E0104B4343AD
:1003F000104C236003E00E4B0E4C236000BF00BF87
:10040000054B5B68C3F303130C4CE15C094B1B68A1
:10041000CB40084C236010BD001002400020024079
:100420000000FFF8FFFFF6FE08ED00E00003FA050C
:1004300000127A000000002000093D0004000020A6
:1004400038B500208DF8030000240BE0F84830F8A0
:100450001400ADF80000F74951F82400694605F092
:1004600073FE641C052CF1D338BD10B590B00BA8F9
:1004700004F096FF684605F031FA4FF4004006F0AC
:10048000E9F80121084606F074F90121480206F056
:100490007DF9E94805F062F9E8480090E8480190E4
:1004A00000200290502003900020049080200590AE
:1004B00040000690800007902020089000020990DC
:1004C00000200A906946DC4805F0EAF90121DA4883
:1004D00005F011FA00200B9001208DF830008DF806
:1004E00031004FF460200D9000200E9005208DF813
:1004F0003C000BA9D1484C3804F02FFF002409E040
:10050000601CC2B2CF48015D0323CC484C3804F0D4
:10051000BCFF641C052CF3D30121C8484C3804F0FF
:1005200053FF0121C5484C3804F043FFC3484C3801
:1005300004F061FF00BFC1484C3804F061FF00289F
:10054000F9D1BE484C3804F065FF00BFBB484C38B9
:1005500004F065FF0028F9D10121B8484C3804F0B7
:1005600068FF10B010BD10B5FFF76AFFFFF77DFF01
:100570000E21B54809F092FBB4480021016010BD7E
:1005800010B501460022052091FBF0F400FB141089
:10059000C1B20B4604E0AA4830F8130002445B1DC8
:1005A000502BF8D3120990B210BD2DE9F04104464A
:1005B000A748007800287AD0A71C002600202070C9
:1005C00000253FE0E8B2FFF7DBFF0646B6F5186FFF
:1005D00018DBB6F5686F03DB7F2027F8150006E00F
:1005E000A6F518600A2190FBF1F027F8150025B94F
:1005F000207840F00200207023E0207840F00400D2
:1006000020701EE0B6F5D06F18DCB6F5C07F03DCB5
:100610007F2027F8150006E0C6F5D0600A2190FB80
:10062000F1F027F8150025B9207840F0010020707E
:1006300007E0207840F00800207002E0002027F852
:1006400015006D1C022DBDD3608840106080A0880D
:100650004010A080207850B9607830B10E2120463B
:1006600009F01CFB0120BDE8F0810020FBE7607869
:100670002178884217D12178002001F0030232B19D
:10068000628823899A4202D001206288228101F087
:100690000C0232B1A28863899A4202D00120A2885A
:1006A0006281E0E703E0207860700120DBE7A71CAF
:1006B000002600202070002552E0E8B2FFF760FF1E
:1006C000064640F23370864221DC40F2B450864246
:1006D00003DC7F2027F8150007E040F23370801B11
:1006E000032190FBF1F027F8150025B9207840F0A0
:1006F0000100207033E0012D04D1207840F0080083
:1007000020702CE0207840F02000207027E040F698
:10071000A900864220DB40F62820864203DB7F20AA
:1007200027F8150006E0A6F6A900032190FBF1F0DA
:1007300027F8150025B9207840F0020020700EE05F
:10074000012D04D1207840F00400207007E02078CB
:1007500040F01000207002E0002027F815006D1C0A
:10076000032DAAD3207848B9607828B10E212046FD
:1007700009F094FA012076E7002074E76078217888
:10078000884220D12178002001F0030232B1628832
:1007900023899A4202D001206288228101F00C0252
:1007A00032B1A28863899A4202D00120A288628174
:1007B00001F0300232B1E288A3899A4202D00120CE
:1007C000E288A2814FE72078607001204BE71F4844
:1007D000007870472DE9F04105460320FFF7D0FE71
:1007E00004466F781B480088844201DB00240FE038
:1007F00019480088844207DC1848008800EB001084
:10080000C0EBC00084B203E012480088001B84B231
:100810006E88A64225DD301B81B2104A108800EB9D
:10082000D072B1EB620F1BDA0020BDE8F08100004E
:10083000289F00082C000020080002404C240140A2
:1008400064020020329F00080403002022000020E0
:10085000150000201A0000201800002016000020BB
:100860000CE0A01B81B2DA4A108800EBD072B1EB29
:10087000620F02DA0020BDE8F08100BF2646D448AE
:10088000008894FBF0F084B2A74208D0E0B2687010
:100890002870CF480088604368800120EBE7002083
:1008A000E9E700B58BB0CB48FFF77FFE58B10220D7
:1008B0008DF804000E22C74903A809F070F901A8B9
:1008C00000F0CCFC00BF0BB000BD00B58BB0C2483F
:1008D000FFF780FF48B100208DF80400BE48007883
:1008E000039001A800F0BAFC00BF0BB000BD2DE9D9
:1008F000F04105460420FFF743FE04466F780026CA
:10090000B6480088844201DA002403E0B348008836
:10091000201A84B2B2480088B0490988401AA0421F
:1009200005DAAF480088AD490988401A84B26E885C
:10093000A6420DDD301B81B2AA4A1088C21700EB17
:100940009272B1EBA20F02DA0020BDE8F0810CE058
:10095000A01B81B2A34A1088C21700EB9272B1EBC0
:10096000A20F01DA0020F0E700BF26469D4800886C
:1009700094FBF0F084B2642C00DD6424BC4205D00A
:10098000E0B2287068706E800120DEE70020DCE7AE
:1009900095484078704700B58BB09348FFF7A7FFA4
:1009A00048B103208DF804008F480078039001A817
:1009B00000F054FC00BF0BB000BD70B502460B4602
:1009C0000024002100259A4201DD002070BD981A04
:1009D00084B2F02C01DA0020F8E7782094FBF0F0E4
:1009E00081B2C1EB0110A4EBC00085B23B2D06DA49
:1009F000481E81B2C1EB0110A4EBC00085B22846AD
:100A000005EBD076C6F34F05501982B2C1EB011049
:100A100002EBC000401E83B26D4801807348028023
:100A2000734803800120D1E72DE9F84F06464FF0C7
:100A30000008C246002000900EB9BDE8F88F346867
:100A40000CB90020F9E72078012801D00020F4E754
:100A500004F1080999F80000272801D00020ECE7EC
:100A6000002000F06AFB01220B21062000F0EDFAC5
:100A700000BF00F0E6FB064606B903E0304600F092
:100A8000E6FBF6E700BF5B48076862E0594801688B
:100A9000384602F0E9FE42F21071884204D9012082
:100AA00000F04BFB0020C8E700F0CBFB064606B980
:100AB0004FE034681CB9304600F0C9FB49E02078AB
:100AC000012803D0304600F0C2FB42E004F10805E3
:100AD000B8F1000F1CD128783E2836D14548076868
:100AE000A878022805D1012202210E2000F0ADFADB
:100AF0002BE0A878012828D1002202210E2000F046
:100B0000A4FA0320FFF73CFD00904FF001081CE021
:100B1000B8F1010F19D12878422816D13548076855
:100B2000A878022804D10122082100F08EFA0CE0F6
:100B3000A878012809D100220821022000F085FAB6
:100B40000320FFF71DFD824604E0304600F07FFBE6
:100B500000BF9BE700BF50460099FFF72EFFB8B1DA
:100B600003F037FDA0B100220B21062000F06DFA42
:100B70002048076800BF1F480168384602F074FE2D
:100B8000B0F57A7FF7D3012000F0D7FA012054E7BF
:100B900001254FF0000B12E085F001052A460B21DC
:100BA000062000F052FA1348076800BF1148016898
:100BB000384602F059FE6428F8D30BF1010BBBF163
:100BC0000A0FE9D3012000F0B8FA012035E7000050
:100BD0001600002004030020220000202000002036
:100BE0001E0000201C00002026000020180000200D
:100BF0001A00002008010020F0B5024692F8F040EB
:100C000004F00706002009E0FE4C215CFE4C34F89D
:100C10001140FE4D55F821502C61401C0C28F3D397
:100C2000002343E0F74FF95C002000E0401C14284B
:100C3000FCD300BFF44F37F81170DFF8D0C35CF875
:100C400021C0CCF81470002000E0401C1428FCD314
:100C500000BF00BF00BF0024002013E0EC4F57F896
:100C60002070BF68DFF8ACC33CF810C007EA0C0581
:100C70000DB1012700E000273D4605FA00F72743A4
:100C8000BCB2401C0928E9D3DF4F37F81170DFF8F8
:100C90007CC35CF821C0CCF8107006EB460C02F166
:100CA000300707EBCC0727F813405B1C0C2BB9D39C
:100CB000D2F8F040641CC2F8F040F0BD2DE9F047D6
:100CC00006460F464FF0FF094FF0000800241BE0D6
:100CD000002512E004EB440006EBC00030F81510CC
:100CE000601C00EB400006EBC00030F815008142AC
:100CF00002D008F1010802E06D1C0C2DEADB00BFF8
:100D00000C2D00D1A146641C072CE1DBB8F1050FC6
:100D100002DD0020BDE8F087B9F1080F01DB0020FB
:100D2000F8E709EB490006EBC0011822384608F045
:100D300036FF0120EEE72DE9F05F804698F8F000DD
:100D400000F0070007287ED1414608F13000FFF788
:100D5000B5FF8346BBF1000F02D10020BDE8F09F34
:100D6000C14608F1180A08F1F407002400255FE0E5
:100D70000020002139F815203AF8153082EA0300E6
:100D800039F815203AF8153002EA030160B300265D
:100D900028E00122B24002401AB3082C00DB4AE0EE
:100DA000F02202EA051206F00F031A4307EB840350
:100DB0005A7005EBC502984B1A44925D07F824203F
:100DC00039F815300122B240134023B1022207EB5B
:100DD00084039A7003E0012207EB84039A70621C7B
:100DE000D4B2761C092ED4DB09B300261DE0012203
:100DF000B2400A40C2B1082C00DB1CE0F02202EA3B
:100E0000051206F00F031A4307EB84035A7005EB33
:100E1000C502814B1A44925D07F82420EE2207EBAD
:100E200084039A70621CD4B2761C092EDFDB6D1C21
:100E30000C2D9DDB00BF18224946504608F0AFFE3E
:100E400020468BE7FFE7002088E738B503208DF8C0
:100E5000020010208DF80300002412E06D4830F8E5
:100E60001400ADF800006A4951F82400694605F005
:100E70006BF9684830F81400654951F8241048614E
:100E8000641C092CEAD300BF28208DF8030000243D
:100E90000BE0604830F81400ADF800005C4951F8F0
:100EA0002400694605F050F9641C092CF1D300BFF9
:100EB00038BD38B503208DF8020010208DF80300EE
:100EC00000240BE0554830F81400ADF800005449F8
:100ED00051F82400694605F037F9641C102CF1D351
:100EE00038BD38B503208DF8020010208DF80300BE
:100EF00000240BE0444830F81400ADF800004349EA
:100F000051F82400694605F01FF9641C0C2CF1D33C
:100F100000240BE03C4830F81400ADF800003B49D9
:100F200051F82400694605F00FF9641C0C2CF1D32C
:100F300038BD002007E0394931F81010384A52F81E
:100F400020205161401C1028F5D37047002007E095
:100F50002D4931F810102D4A52F820201161401C03
:100F60000C28F5D37047002007E0274931F810100E
:100F7000264A52F820201161401C0C28F5D37047F6
:100F800010B5FFF7F0FFFFF7E1FF10BD2DE9F041CD
:100F90000546287E00F00F06012000FA06F74FF004
:100FA0000008FFF7C6FFFFF7D1FF00240CE035F87B
:100FB000148008EA070030B1134830F814001349D0
:100FC00051F824104861641C0C2CF0D3134830F8FD
:100FD0001600134951F826100861701CA861BDE87D
:100FE000F08110B5FFF731FFFFF763FFFFF779FFDF
:100FF000FFF7C6FF4FF48A710A4808F071FE1C2102
:10100000094813E018A00008A09F0008709F00087E
:10101000389F00085C9F000845000020F89F0008EA
:10102000B89F0008140300202804002008F058FE90
:1010300018216A4808F032FE1821694808F02EFE8F
:101040001821684808F02AFE10BD30B50B46FF286D
:1010500001D0FF2B00D130BD00F00F000C24B3FBFA
:10106000F4F504FB1533604C04EB43012AB10C8802
:10107000012585402C430C8004E00C880125854027
:10108000AC430C8000BFE6E710B5024602F00F0249
:101090000C20B1FBF0F400FB1411534830F8113070
:1010A00001209040184008B1012010BD0020FCE74D
:1010B00030B50B4600F00F000C24B3FBF4F504FB35
:1010C0001533464C04EB43012AB10C8801258540B9
:1010D0002C430C8004E00C8801258540AC430C8037
:1010E00030BD10B5414801684148006802F0BCFBC2
:1010F000B0F5FA7F20D9002111E03B4B03EB410012
:10110000364B33F811204AB13A4B1B781BB1038898
:101110001343038002E0038893430380491C0C2996
:10112000EBD3324B1B68324C2360324B1B7883F07D
:101130000103304C237000BF10BD70B5044600257C
:1011400004B1FF251821254808F0A8FD2A461821DA
:10115000254808F09BFD70BD10B518221F49214895
:1011600008F01DFD182220491D4808F018FD10BD8B
:1011700010B518221B49194808F011FD182218490A
:10118000194808F00CFD10BD10B58AB0174800785A
:1011900000F00100D0B90024FFF7CBFE1648FFF79E
:1011A0002BFD1548FFF7C7FD0446002C0DDD01940B
:1011B00001208DF80000A2000F49F43102A808F0C8
:1011C00033FD684600F04AF800BF00BFFFF789FF13
:1011D0000548FFF7DBFE0AB010BD00004404002004
:1011E0005C04002074040020280400200801002072
:1011F00040000020440000201403002010B5052307
:1012000008222449244802F0A7FD002416E000200B
:1012100004EB44011F4A02EBC101087204EB840095
:101220001E4901EBC00004EB440142F831002820C4
:1012300004EB440102EBC1014860641C082CE6D3B6
:1012400010BD10B50121144802F009FE10BD10B503
:1012500004462146104802F039FE10BD70B5044620
:10126000002504B970BD0C4802F0B6FD054675B105
:1012700028222146286808F092FC012229460648C7
:1012800002F0C1FD18B12946034802F01FFE00BF5D
:10129000E8E70000CC0500208C0600208C0400202C
:1012A0000EB500250121080705F07DFA022005F0A2
:1012B000E7F8012802D1022005F0ECF8012005F042
:1012C000DFF8012802D105F0E5F804E0012005F07F
:1012D000A3F805F0C0F8002005F09EF8FFF78EFF98
:1012E00001F0ABF802F0F2FA02F0FAFA03F017F9A3
:1012F00000F02BF903F089FBFFF773FE0020FFF7E6
:101300001CFFFFF730F903F049FA02F08BFB02F003
:10131000B5FB02F0EBFA01F0A1F803F083FC012029
:10132000FFF70BFF5248066822E0FFF78AFF0446EA
:1013300084B1204601F0ADF810B14D48066809E0CF
:101340002046FFF771FB10B14948066802E02046CD
:10135000FFF77DFF0120FFF7F0FE454801683046AA
:1013600002F082FA41F28831884200D901E000BFE0
:10137000DBE700BF0120FFF7E0FE002529E00024A5
:1013800000273B4806686C46002020606060208192
:10139000AA2020700720A070C020E070204600F036
:1013A0002FFE0821204600F0D9FE002000F0E2F8D0
:1013B00007461FB1384600F07EF90CE06D1C00BFF7
:1013C0002B480168304602F04FFAB0F57A7FF7D328
:1013D00000BF032DD3D300BF0020FFF7AEFE01F006
:1013E0002CF8012001F08CFE012208210420FFF7D7
:1013F0002CFE00BFFFF725FF044604B903E020469A
:10140000FFF725FFF6E700BF30E0002000F0B2F85C
:101410000446FFF716FF0746002003F00AFB81464B
:10142000002003F080FC804617B1384601F02CFE06
:101430003CB11049204600F09AFE10B1204602F05F
:10144000E5F9B8F1000F02D0404602F0DFF9384666
:10145000FFF7FDFE204600F02EF9484603F089FB19
:10146000404603F024FD02F034FB00BFCDE700004E
:101470000801002024A0000800B587B001218803DE
:1014800005F084F903A806F09FF94FF41650039075
:1014900003A9AA4806F02FF90121A84806F0B7F9D8
:1014A0004FF40070ADF8080003208DF80A001820F2
:1014B0008DF80B0002A9A24804F046FE4FF48060AC
:1014C000ADF8080004208DF80B0002A99C4804F038
:1014D0003BFE25208DF8040004208DF80500002037
:1014E0008DF8060001208DF8070001A803F0A5FE85
:1014F000012240F22551914806F095F90121084654
:1015000005F037F943F290008E4948648B48001D7E
:10151000C86400208864086501228021874806F09D
:10152000A7F907B000BD38B58448048804F020004E
:1015300050B18248001D0088C0B200900122694667
:10154000814802F0F5FC00BF38BD10B50023102221
:101550007E497F4802F000FC80227E497A4802F0F2
:10156000C9FC4FF480627C497C4800F0FDF8FFF72D
:1015700083FF10BDF0B585B0054600BF00270020F1
:10158000049004A9704802F01BFD074607B92BE040
:1015900027E00026002003900290002402A903AB5C
:1015A000CDE9001039466D48049A00F0EFF8064680
:1015B00006B917E0664802F00FFC044614B930463D
:1015C00008F05DFA2660039860600120207202989E
:1015D000A072012221465E4802F015FC0020049012
:1015E00000BFD6E700BF00BF00BF00BF00245C48BB
:1015F0000078E8B15348006800F4005010B905B114
:1016000049E049E04D48008800F0400010B905B1BC
:1016100041E041E04FF480504A4948605148007A27
:1016200018B15049086808F02AFA00204C4908709F
:101630000021474802F013FC04465CB360680028B0
:1016400001DD206848B9207A20B1206810B12068F7
:1016500008F015FA05B11EE01EE03A48406C20F093
:101660000100384948646068886420680865084655
:10167000406C40F00100486401203949087018228C
:101680002146384808F0D0FA2146314802F01EFCC5
:1016900005B100E000E0A9E700BF00BF0024012180
:1016A0002B4802F0DCFB044614B1204605B0F0BD27
:1016B00000BF0020FAE710B5044644B1207A10B10B
:1016C000206808F0DCF92146214802F0FFFB10BD3C
:1016D0002DE9F04105460E4690461F46002415B9F7
:1016E000601EBDE8F0811A4802F076FB044614B98A
:1016F0004FF0FF30F5E72560676026720022214633
:10170000134802F080FB0020EBE710B504461CB143
:1017100021460F4802F0DAFB10BD4FF4806070479D
:1017200010B5044604B910BD0020A0810C206081D2
:101730002146024805F0DFFF00BFF4E70038014012
:101740000008014000000240B4080020A00600206C
:101750002008002034080020CC080020CC0C0020F9
:10176000B1000020E40C002070B504460E4615467A
:101770000CB106B115B94FF0FF3070BD18212046ED
:1017800008F0AEFA266065600020F6E72DE9FF4F0D
:101790008DB0044691469A46DDF868800027002007
:1017A0000C9014B1BAF1000F03D14FF0FF300C9040
:1017B00023E221696068401A484502D24FF0FF30A9
:1017C0000C90B9F1000F2ED00E9818B94FF0FF30E1
:1017D0000C90EDE7A06800EB09066068B04214D2F7
:1017E000D4E90101451AA268216888182A460E9991
:1017F00008F0D5F9A9EB05020E9B5919206808F0ED
:10180000CEF9A9EB0500A06009E0A268216888185C
:101810004A460E9908F0C3F9A0684844A0602069C0
:101820004844206100BF00BF00200B900025BDE3AD
:10183000E06828440A9061680A98B0FBF1F201FB65
:1018400012000A9021680A98085C09900998AA2851
:101850007DD10026002008902069401B0790079842
:10186000072806DB606928B1A08AC0F30726207D1F
:10187000089085E0E26850192168821C6368B2FB19
:10188000F3FC03FB1C228A5C042A78D1C21C636827
:10189000B2FBF3FC03FB1C228A5C002A6FD1421DC1
:1018A0006368B2FBF3FC03FB1C228E5C821D636841
:1018B000B2FBF3FC03FB1C228A5C0892079A082AFD
:1018C0005DDBD4F80CC0AC44CDF818C005F1070CB2
:1018D000D4F80CB00CEB0B034FF0000CCDF814C097
:1018E000069A10E0D4F804C0B2FBFCFB0CFB1B2CE6
:1018F000D4F800B01BF80CC0DDF814B08CEA0B0C67
:10190000CDF814C0521C9A42ECD3D4F804C0B3FBF7
:10191000FCFB0CFB1B3CD4F800B01BF80CC0CDF852
:1019200010C0DDE904CBE3451BD005F1010CD4F870
:1019300010B0ABEB0C0CC4F810C005F1010CD4F8DE
:101940000CB0DC44C4F80CC0D4F80CC000E03FE19B
:10195000D4F804B0BCFBFBFE0BFB1ECCC4F80CC0DF
:1019600028E3F6B2DDF820C00CF0FF0CCDF820C063
:10197000DDF820C00CEB062CC4F814C000BF00BF7B
:10198000F6B20898C0B20890089800EB0626083610
:101990006068B6EB500F11D9681C2169081A2061E4
:1019A000681CE1680844E0606168E068B0FBF1F23F
:1019B00001FB1200E0600020606108E107988642A8
:1019C00075DC082E75D1002006900196019808F06C
:1019D00027F807461FB94FF0FF300C9007E3059733
:1019E000E06828440390701E2844E168084402908F
:1019F0000398049015E061680498B0FBF1F201FBD4
:101A00001200216811F800B0069880EA0B000690D9
:101A1000059880F800B00598401C05900498401C7B
:101A20000490029904988842E5D361680298B0FB5B
:101A3000F1F201FB1200216811F800B00698584538
:101A40001FD101200B90059880F800B02169019802
:101A50002844081A2061E068411901980844E060B0
:101A60006168E068B0FBF1F201FB1200E0600198F0
:101A7000CAF80000B8F1000F18D00120C8F8000023
:101A800014E0384607F0FBFF0027681C2169081A9C
:101A90002061681CE1680844E0606168E068B0FBB0
:101AA000F1F201FB1200E060002060618FE07FE056
:101AB000FFE70596059807F0B3FF07461FB94FF0FB
:101AC000FF300C9093E2E06828446168B0FBF1F2CB
:101AD00001FB120B7019E16808446168B0FBF1F278
:101AE00001FB120006900698584507D9206800EBC4
:101AF0000B013246384608F052F811E06068A0EB5E
:101B00000B000290206800EB0B013846029A08F0A7
:101B100046F8029BF21AF818216808F040F800BF56
:101B200000206061A6F10A0081B207F1080002F00E
:101B30002FF8049000200390B819811E022203A8F8
:101B400002F002F8BDF80C10049881421CD101206B
:101B50000B90216905982844081A2061E068411912
:101B600005980844E0606168E068B0FBF1F201FBB1
:101B70001200E0600598CAF80000B8F1000F16D016
:101B80000120C8F8000012E0384607F078FF00276F
:101B9000681C2169081A2061681CE1680844E0603B
:101BA0006168E068B0FBF1F201FB1200E0600EE05A
:101BB0002069401B2061E0682844E0606168E068BB
:101BC000B0FBF1F201FB1200E06001200B90F1E1AB
:101BD0000998FA2870D12069A0EB050BBBF1070F1B
:101BE0006BDB0020089007200390039807F018FF94
:101BF00007461FB94FF0FF300C90F8E13E46E06811
:101C000028440590A81DE1680844049005980690B2
:101C10000FE060680699B1FBF0F200FB121021683A
:101C2000085C07909DF81C0006F8010B0698401C04
:101C30000690049906988842EBD30220069009E0AA
:101C40000698385C9DF820100844C0B208900698A9
:101C5000401C069006980628F2D360680499B1FBF0
:101C6000F0F200FB12102168085C07909DF820003C
:101C70009DF81C10884221D101200B909DF81C007A
:101C80003070206903992944401A2061E068284493
:101C900003990844E0606168E068B0FBF1F201FB81
:101CA0001200E0600398CAF80000B8F1000F18D0E5
:101CB0000520C8F8000014E024E013E0384607F0DF
:101CC000DEFE0027681C2169081A2061681CE16893
:101CD0000844E0606168E068B0FBF1F201FB1200CB
:101CE000E0600EE02069401B2061E0682844E0606D
:101CF0006168E068B0FBF1F201FB1200E0600120D6
:101D00000B9057E1099800F0F000802879D1206904
:101D1000401B08900898032874DBE068284407906B
:101D2000D4E9031000EB010B002006900798861CF5
:101D30000DE06068B6FBF0F100FB11602168085C03
:101D400006900698FF2801D1B34602E0761C5E4556
:101D5000EFD300BF0698FF2855D10798ABEB0000E2
:101D6000401C102810D90027681C2169081A20611E
:101D7000681CE1680844E0606168E068B0FBF1F26B
:101D800001FB1200E06063E00798ABEB0000401C31
:101D90000490049807F044FE07461FB94FF0FF3047
:101DA0000C9024E1059701200B90079E0CE06068E1
:101DB000B6FBF0F100FB11612068415C05980170F1
:101DC0000598401C0590761C5E45F0D92169049861
:101DD0002844081A2061E068411904980844E0602A
:101DE0006168E068B0FBF1F201FB1200E06004986A
:101DF000CAF80000B8F1000F02D00420C8F80000B3
:101E000026E036E025E00798ABEB0000102810D361
:101E10000027681C2169081A2061681CE1680844D1
:101E2000E0606168E068B0FBF1F201FB1200E06085
:101E30000EE02069401B2061E0682844E060616892
:101E4000E068B0FBF1F201FB1200E06001200B90B2
:101E50000EE02069401B2061E0682844E060616872
:101E6000E068B0FBF1F201FB1200E06001200B9092
:101E7000A0E00998A52871D12069A0EB050BBBF162
:101E80000B0F6CDB002008900B200390039807F0E9
:101E9000C7FD07461FB94FF0FF300C90A7E03E4644
:101EA000E0682844059005F10A00E16808440490C0
:101EB000059806900FE060680699B1FBF0F200FB10
:101EC00012112068405C07909DF81C0006F8010B79
:101ED0000698401C0690049906988842EBD301208E
:101EE000069009E00698385C9DF820100844C0B2BE
:101EF00008900698401C069006980A28F2D360685D
:101F00000499B1FBF0F200FB12102168085C079005
:101F10009DF820009DF81C10884221D101200B90D3
:101F20009DF81C003070206903992944401A2061F3
:101F3000E068284403990844E0606168E068B0FB09
:101F4000F1F201FB1200E0600398CAF80000B8F15A
:101F5000000F18D00620C8F8000014E024E013E0B9
:101F6000384607F08CFD0027681C2169081A20619B
:101F7000681CE1680844E0606168E068B0FBF1F269
:101F800001FB1200E0600EE02069401B2061E06868
:101F90002844E0606168E068B0FBF1F201FB1200E8
:101FA000E06001200B9005E000BF6D1C2069A84295
:101FB0003FF63EAC00BF2069A8420FD10B9868B92C
:101FC00000202061E0682844E0606168E068B0FBC0
:101FD000F1F201FB1200E060002060610B9800B19B
:101FE00003E0206900283FF71FAC00BF00BF1B982B
:101FF00010B11B990C980860384611B0BDE8F08FFD
:1020000010B501460B78FD4C24680CB1092200E0A4
:102010000722012002E00C5C6340401C9042FADB86
:102020000B5410BD2DE9FF4381B08846DDF8309098
:102030000024B8F1000F03D1002005B0BDE8F08303
:10204000DDE9030100FB01F707F11006304607F058
:10205000E7FC04460CB90020EFE73146204607F0C4
:102060001DFEAA2020700420A0700020E070A6F1C0
:102070000800009002226946601D01F065FD2046BF
:10208000FFF7BEFF04F10805022201A9284601F06E
:102090005BFD022203A9A81C01F056FD022204A93F
:1020A000281D01F051FD3A464146A81D07F077FD75
:1020B000B81D81B2284601F06BFD0090A91DC8191A
:1020C0000222694601F040FDB9F1000F01D0C9F8C4
:1020D00000602046B1E7F8B506460F4614461D4697
:1020E00023460122394630460095FFF79BFFF8BD95
:1020F00070B505460C46ADB1A4B1204607F090FC82
:10210000064676B122462946304607F048FD23466A
:10211000052201213046FFF7DBFA10B1304607F007
:10212000AEFC00BF70BD70B505460C46ADB1A4B1A4
:10213000204607F075FC064676B122462946304611
:1021400007F02DFD234605220121304602F028FD2F
:1021500010B1304607F093FC00BF70BD70B5044667
:102160000D4629462046FFF7C3FF70BD70472DE995
:10217000F04F8FB007460C4601200E901FB9801E0D
:102180000FB0BDE8F08F3D682878AA2802D04FF044
:10219000FF30F5E7A8780C287AD1E878802878D144
:1021A00000200C900D9000260B904FF001094FF08D
:1021B000010A8346AA208DF830000C208DF83200E9
:1021C00080208DF8330001208DF83400A8790D2887
:1021D00060D2DFE800F05F0708165F245F5F5F38BA
:1021E0005F3A4B0000BFA8798DF83600082007F051
:1021F00017FC064616B94FF0000950E008200B9076
:102200004DE008A801F0A7FF4FF0000A0BAB0C222D
:1022100008A948F20300FFF75EFF06463FE00020F2
:102220000A902CB1206918B12069804780B20A90C9
:102230004FF0000A0BAB02220AA948F20500FFF793
:102240004AFF06462BE001F0F3FA4FF0FF300A9008
:1022500001F08CFF0A904FF0000A0BAB04220AA990
:1022600048F20B00FFF737FF064618E00FF2901810
:102270004FF0000A404607F073FC401C0BAB0246CF
:1022800041460A9048F20C00FFF725FF064606E09B
:1022900030E0CBE04FF0000900200E9000BF00BFFF
:1022A000B9F1000F20D0FEB1BAF1000F06D00CA892
:1022B000FFF7A6FE0C9830600D9870601CB9304690
:1022C00007F0DDFB10E0606918B9304607F0D7FB76
:1022D0000AE0D4F814C00522012130460B9BE047E8
:1022E00010B1304607F0CBFBBBF1000F01D001F07D
:1022F0009FFA9BE0A87804287ED100200D908046AC
:102300000E900222691D0DA801F01EFC05F10806C1
:102310000D98801E0D9082E04FF0000900200C9077
:102320004FF0010A0B900A900990022231460BA847
:1023300001F00AFC0222B11C0AA801F005FC0222ED
:10234000311D09A801F000FCBDF82C00A0F50040EB
:102350000A3858BB06F1060B01A801F0FCFE4FF04D
:10236000FF3001F003FF0090012301A904A8009AA7
:1023700001F022FF1022594604A807F0C5FB38B926
:10238000002008900022012104A801F03BFF02E098
:102390004FF0FF3008900CAB042208A948F20A0065
:1023A000FFF799FE814601200E9000E000BF00BFBC
:1023B000BAF1000F18D0B9F1000F15D01CB948467A
:1023C00007F05DFB10E0606918B9484607F057FB5D
:1023D0000AE0D4F814C00522012148460C9BE047CE
:1023E00010B1484607F04BFBBDF82800BDF824109B
:1023F0004843801D80440DE016E000000C010020E1
:1024000059415F564D49585F4B45595F3138303817
:102410003038000005F1080000EB080600BF0D98F9
:102420008045FFF479AF01E000200E900E9808B1CE
:102430000020A5E64FF0FF30A2E60020F749087023
:102440000120F74908700020F6490870F649087025
:10245000F64908700120F6490870704770477047C8
:10246000704701460022012003E00B5C1344DAB2FE
:10247000401C0628F9DB0A5470470146002201205F
:1024800003E00B5C1344DAB2401C0A28F9DB0A545F
:1024900070472DE9FC470746E6A000680190E64832
:1024A000006800904FF0000817B90020BDE8FC87D5
:1024B0003C680CB90020F9E72078012801D0002001
:1024C000F4E704F1080528781B2801D00020EDE787
:1024D0000020FEF732FED948D0F800A07AE0002CA8
:1024E00051D004F10805B8F1000F16D128781B2847
:1024F00049D1D248D0F800A0A878022808D10020FD
:10250000FEF71BFE012205210020FEF79EFD3AE0AA
:10251000A878012837D1804635E0B8F1010F32D1D3
:102520004FF0FF364FF0000909E0287801A911F8B3
:102530000910884201D14E4604E009F10109B9F1C0
:10254000020FF2D300BF701CE0B1BC48D0F800A06D
:10255000A878022808D11DF816103DF81620100A98
:102560000122FEF772FD0DE0A87801280AD11DF8BE
:1025700016103DF81620100A0022FEF766FD06F13F
:10258000020828E000BF3846FEF761FE0027AB488E
:102590000168504601F068F941F28831884204D957
:1025A0000020FEF7CAFD002080E70024FEF749FE68
:1025B000074607B90EE03C681CB93846FEF747FEEF
:1025C00008E02078012804D000243846FEF73FFEBA
:1025D00000E000BF83E700BF3846FEF738FEB8F1E1
:1025E000020F44D3B8F1020F03D0B8F1030F08D1A2
:1025F00003E001209249087004E006209049087029
:1026000000E000BF00BF01F0E4FFA0B18B48D0F8AC
:1026100000A00120FEF791FD00BF884801685046E8
:1026200001F022F940F2DC518842F6D30020FEF797
:1026300084FD01203AE701264FF0000913E086F0FF
:102640000106324605210020FEF7FFFC7B48D0F84A
:1026500000A000BF79480168504601F005F96428E0
:10266000F8D309F10109B9F10A0FE8D300BF00203E
:10267000FEF763FD002019E7F8B507460E4671A086
:102680000068009000242CE0002527E0042000FBD7
:10269000045047FA00F000F0010050B1601C1DF832
:1026A00000006A00012191400843C1B2601C0DF88E
:1026B0000010042000FB045046FA00F000F0010076
:1026C00058B1601C1DF80000012101EB450291404A
:1026D0000843C1B2601C0DF800106D1C042DD5D349
:1026E000641C022CD0D39DF800009DF801104840D6
:1026F0009DF8021048408DF8030004216846FFF75A
:1027000012FDF8BD2DE9F04104460D4616461F4660
:10271000072C01DDBDE8F08116B100204A490870A0
:102720003DB1494800780121A1400843464908705D
:1027300006E0454800780121A140884342490870DD
:1027400027B1414A51781078FFF796FF00BFE1E7C3
:102750002DE9F04104460D4616461F46072C01DDC3
:10276000BDE8F08116B10020374948703DB13648C8
:1027700040780121A14008433349487006E03248BF
:1027800040780121A14088432F49487027B12E4A43
:1027900051781078FFF770FF00BFE1E770B504468D
:1027A0000E4615462948007838B1FF2C05D085F033
:1027B00001023146601CFEF748FC2A46314620469D
:1027C000FEF743FC70BD2DE9F04105460E46174665
:1027D000002409E015F8141035F81420100A3A46C0
:1027E000FFF7DCFF601C84B2B442F3DBBDE8F0818C
:1027F0002DE9F04105460E461746002409E015F87C
:10280000141035F81420100A3A46FEF71EFC601C1E
:1028100084B2B442F3DBBDE8F0810000B4000020D4
:10282000B500002014000020B6000020B7000020F2
:10283000B90000200F100000D0A0000808010020FF
:10284000BA000020FC000000BC000020BB000020FB
:102850002DE9F04107464FF000081BE107F10800A1
:1028600000EB88063578B078EE2802D1432D00D0F1
:102870000EE1FE4C0020206060602081AA202070C4
:10288000FB48007860700720A070B078012800D164
:102890002071442D71D2DFE805F0F1222324252B8D
:1028A0002C2D2E343536373D3E4445464748494F5A
:1028B00050515253545A5B5C5D5E5F656667686950
:1028C0006A717278797A7B7C7D7E7F808182838950
:1028D0008E939495969C9D9E9FA5A6A7A8AE00BF9B
:1028E00000BF00BF4720E07005F15F006071C6E0E7
:1028F00000BF00BF00BF4720E07005F16B006071B2
:10290000BDE000BF00BF00BF4720E07005F14A00F6
:102910006071B4E000BF4720E07005F143006071D2
:10292000ADE000BF00BF00BF00BF00BF4820E070A7
:10293000A5F10D006071A2E000BF00BF00BF00BFA5
:1029400000BF4820E07005F16B00607197E000BFA8
:1029500000BF00BF00BF00BF4820E070A5F113001A
:1029600060718CE000BF00BF00BF00BF00BF482007
:10297000E07005F16F00607181E07FE000BF4820EA
:10298000E070A5F12700607179E000BF00BF00BFD3
:1029900000BF00BF00BF00BF00BF00BF00BF00BF3F
:1029A0004820E07005F12700607168E04A20E0707F
:1029B0000420607163E04A20E070082060715EE0EE
:1029C00000BF00BF00BF4720E07005F14900607103
:1029D00055E000BF00BF00BF4720E07005F1550083
:1029E00060714CE000BF00BF00BF4820E07005F1FF
:1029F0002100607143E0B078022807D101209D4991
:102A000008709D4800689D49086036E0B078EE285F
:102A10000CD1994801689948006800F025FFB0F58D
:102A2000FA6F2AD90020FEF788FB26E0914800784B
:102A300018B3914801689148006800F015FFB0F59F
:102A4000FA6F1AD90020FEF778FB8B4800688B4993
:102A5000086000BF884801688848006800F004FFEB
:102A6000B0F5FA6FF6D300217D2003F08FFE72B629
:102A7000012003F0D1FC03F0EEFC09E008E000BF08
:102A80002046FFF7BDFA08212046FFF767FB00BF8D
:102A900008F10108786840453FF6E0AE0120BDE846
:102AA000F0812DE9FF4706467548007818B90020E7
:102AB00004B0BDE8F0876D4C00202060606020818C
:102AC000AA2020706A48007860700720A070307AD1
:102AD000E0707089C0F3470884F80480B089C0F3BF
:102AE000470984F80590F089C0F3C70A84F806A066
:102AF0006448007818B1207940F0400020712046E9
:102B0000FFF77EFA60480078022824D1FF208DF874
:102B1000080057480078401CC0B28DF8090000201A
:102B20008DF80A00307A4006000E8DF80B0008F090
:102B3000FF008DF80C0009F0FF008DF80D0002A8D1
:102B4000FFF78FFC072102A8FFF710FB072102A85F
:102B5000FFF704FB46E1307A4006050E05F07E05DE
:102B6000434800788130C0B28DF8000047480078B3
:102B700060B905F01E0018B101204449087005E055
:102B800005F0600010B10220404908703F4800780D
:102B900001282CD13E48007870B305F01E0058BBC8
:102BA00001208DF8010006208DF8020001208DF82B
:102BB000030000208DF804008DF8050003208DF837
:102BC00006008DF80700FF208DF8080009216846EF
:102BD000FFF7CCFA09216846FFF7C0FA00202C491C
:102BE000087005F0400018B102202849087079E00B
:102BF00000202649087075E001208DF801000620AC
:102C00008DF8020001208DF8030005F00600D0B118
:102C1000C8EBC80101EB08103F21B0FBF1F018210F
:102C2000B0FBF1F201FB1200401CC1B28DF80410A0
:102C300005F0040119B101218DF8061002E002210E
:102C40008DF8061005E000208DF8040003208DF8B3
:102C5000060005F0180080B309EB490101EB0910EB
:102C60003F21B0FBF1F0142114E00000FC0C002027
:102C7000B4000020EC00002008010020E800002043
:102C8000B9000020B8000020BA000020EF000020AA
:102C9000EE000020B0FBF1F201FB1200401CC1B2BB
:102CA0008DF8051005F0080119B101218DF8071004
:102CB00002E002218DF8071006E0FFE700208DF802
:102CC000050003208DF80700FF208DF8080009217A
:102CD0006846FFF74BFA09216846FFF73FFA0120E3
:102CE000F9490870F9480078022876D1F848007848
:102CF000F8B105F06000E0B901208DF80100042072
:102D00008DF8020007208DF8030000208DF80400E4
:102D1000FF208DF8050006216846FFF727FA0621F7
:102D20006846FFF71BFA0020E9490870E749087078
:102D300053E005F04000402827D10AEB8A070F2016
:102D4000B7FBF0F70620B7FBF0F100FB1177BF1CD3
:102D500001208DF8010004208DF8020007208DF875
:102D6000030007F13000C0B28DF80400FF208DF899
:102D7000050006216846FFF7F9F906216846FFF7C6
:102D8000EDF90120D249087027E00AEB8A070F20ED
:102D9000B7FBF0F70620B7FBF0F100FB1177BF1C83
:102DA00001208DF8010004208DF8020007208DF825
:102DB000030007F12000C0B28DF80400FF208DF859
:102DC000050006216846FFF7D1F906216846FFF79E
:102DD000C5F90120BE49087000BF15B90020BB49E4
:102DE000087000BF012063E670B50646B94C0CB907
:102DF000002070BD0020206060602081AA2020702B
:102E0000B548007860700720A0708020E0702079BD
:102E100040F080002071307A60712046FFF7F0F8B2
:102E200008212046FFF79AF9657900BF542D0AD989
:102E3000012209210720FEF708F9002209210620B6
:102E4000FEF703F916E02A2D0AD2002209210720F5
:102E5000FEF7FBF8012209210620FEF7F6F809E04B
:102E6000012209210720FEF7F0F80122092106209E
:102E7000FEF7EBF80120BCE770B50546954C0CB9A0
:102E8000002070BD0020206060602081AA2020709A
:102E90009148007860700620A0708020E070287A49
:102EA0006071A0712046FFF7ABF808212046FFF7BC
:102EB00055F90120E5E7F8B5054600262DE005F1B6
:102EC000080000EB86042078432802DA20780128E5
:102ED00000DA21E0A078EE2800D11DE07FA0006894
:102EE0000090A078012808D108208DF800008020EB
:102EF0008DF8010000208DF8030020781F30C0B24B
:102F00008DF8020001F0BAFE20B1032204216846C8
:102F100001F0E1FE00BF00BF761C6868B042CED869
:102F20000120F8BDF8B50446002000906D4600264B
:102F30000027277A07F0020038B1608906B260895D
:102F4000404206B270B2287006E007F0010018B1E6
:102F5000608906B270B2287007F0080020B1A0891D
:102F600006B270B2687009E007F0040030B1A089C1
:102F700006B2A089404206B270B2687007F0200025
:102F800038B1E08906B2E089404206B270B2A8705A
:102F900006E007F0100018B1E08906B270B2A87020
:102FA00001F06CFE20B104220321684601F093FE7B
:102FB0000120F8BD704700B501460A8990B2FFF7BD
:102FC000F9FF012000BD38B504464548006800906F
:102FD000208985B2C5EBC510772190FBF1F085B251
:102FE000E8B28DF8030001F049FE20B1032204216C
:102FF000684601F070FE012038BD10B501F03EFEBC
:10300000002840D0374801683748006800F02CFCA1
:10301000C82838D93548008803281CD13448C078DE
:1030200068B97F203249C87008468078401C887093
:1030300008468078642805DD1420887002E00020AE
:103040002B49C87003220421294801F044FE0420C2
:103050002649088013E0FDF7C5F826490870FDF7FA
:10306000C1F824494870FDF7BDF822498870042250
:103070000321204801F02FFE03201C490880194835
:1030800000681949086010BD70B505462C682078A5
:10309000052801DB002070BD2078174951F8200079
:1030A00028B120780A4652F8201020468847207818
:1030B000124951F8200028B120780A4652F8201011
:1030C000204688470020E6E7EE000020EF000020C1
:1030D000ED000020FC0C0020B40000200990007FCF
:1030E000D4A0000808010020F0000020F400002017
:1030F000F6000020FE000020C0000020D4000020C8
:103100002DE9F0410646FA480078C0B1002413E0EA
:10311000F84830F814504FF6FF70854200D10AE0AD
:10312000012000EB152705F0FF08324641463846DE
:10313000FDF78BFF00BF641C422CE9D300BFBDE844
:10314000F0812DE9F04393B007461FB9012013B079
:10315000BDE8F0833C6894F80380A07908B90120A9
:1031600000E000208146A078062801D10120EEE78A
:1031700065794046B8F1490F74D008DCA0F14400ED
:10318000052870D2DFE800F010111213B3004C28AC
:103190006AD004DC4A2868D04B2864D154E28028E5
:1031A00078D0C028F9D17EE2CDE2CCE2CBE228464D
:1031B000702D5BD00FDCA0F1500014286BD2DFE83B
:1031C00000F02728292A2B2C2D93939393939393E4
:1031D00093933D3E3F40822860D00CDC732848D05A
:1031E00004DC712843D072287ED141E0802853D07E
:1031F000812879D151E0912863D004DC83284ED016
:10320000902871D15CE092285CD093286CD15AE070
:1032100000BF00BF00BF00BF00BF00BFB64B0FCB59
:103220000FAE0FC6A5F150020FAB13F8121033F812
:103230001220100A4A46FFF7B1FA56E000BF00BF5D
:1032400000BFAD49103103C9CDE91101A5F16002FC
:1032500011AB13F8121033F81220100A4A46FFF788
:103260009DFA42E0D8E16CE203E2D6E100BF00BF84
:1032700000BFA149183103C9CDE91101A5F17002C0
:1032800011AB13F8121033F81220100A4A46FFF758
:1032900085FA2AE006E227E000BF00BF00BF96499A
:1032A000203103C9CDE91101A5F1800211AB13F85A
:1032B000121033F81220100A4A46FFF76FFA14E092
:1032C00000BF00BF00BF8C49283103C9CDE91101FF
:1032D000A5F1900211AB13F8121033F81220100A66
:1032E0004A46FFF75BFA00E000BF00BF2BE218225E
:1032F000814930310DA806F097FC18227E494831EB
:1033000007A806F091FC552D7ED022DC0D2D7CD037
:103310000ADC0D2D7AD2DFE805F04A50565758598D
:103320005A5B8D8E8F909100402D70D008DCA5F1F6
:103330000E000628EED2DFE800F0B6B7B8B9BABB87
:10334000A5F150000528E5D2DFE800F0B4B5B6B726
:10335000B800832D7ED01ADC602D7CD008DCA5F16E
:1033600056000628D6D2DFE800F0ABACADAEAFB069
:10337000802D71D006DC612D6FD0622D6ED0632D53
:1033800044D1BEE0812D6AD0822DF9D1CDE0A5F1E6
:1033900084001428BED2DFE800F0CACBCCCD393986
:1033A000393939393939F5F4F3F2F1F0EFEE4A46AB
:1033B0000B210620FFF7F2F92CE14A460B210420ED
:1033C000FFF7ECF926E100BF00BF00BF00BF00BF60
:1033D00000220C210DA8FFF7F6F96279921E0DABC1
:1033E00013F812106279921E33F81220100A4A461E
:1033F000FFF7D4F9207901281BD16179891EC8B261
:1034000001231A46494603E059E018E001E150E083
:10341000FFF778F9002604E0F0B2002100F03EFB4F
:10342000761C082EF8D36179891EC8B2494600F08F
:1034300035FBEFE000BF00BF00BF00BF00BF0022B0
:103440000C2107A8FFF7BFF96279083A07AB13F818
:10345000121005E06AE051E065E050E050E063E002
:103460006279083A33F81220100A4A46FFF796F9B3
:103470002079012816D161790839C8B201231A468A
:103480004946FFF765F9002606E006F10801C8B2D3
:10349000002100F003FB761C082EF6D36079494624
:1034A00000F0FCFAB6E000BF00BF00BF00BF00BFE5
:1034B000B0E0AFE000BF00BF00BF00BF00BF00BF73
:1034C00000BF00BF00BF00BF00BF18220A49603123
:1034D00001A806F0A9FBA5F1500201AB13F81210E8
:1034E00033F81220100A4A46FFF758F992E000001C
:1034F000BB0000204CA00008D8A0000800BF00BFFF
:1035000000BFD24903C9CDE905016279603A05AB34
:1035100013F812106279603A33F81220100A4A4602
:10352000FFF73CF976E000BF00BF00BF00BF00BF5F
:1035300000BF00BF00220C210DA8FFF744F96279FB
:103540007A3A0DAB13F8121062797A3A33F81220F6
:10355000100A4A46FFF722F92079012820D1812D4F
:103560001EDC61797A39C8B201231A464946FFF751
:10357000C9F800260CE01BE019E017E015E013E0A5
:1035800011E00FE00DE0F0B2002100F087FA761CA8
:10359000082EF8D361797A39C8B2494600F07EFA2C
:1035A00038E000BF00BF00BF00BF00BF00BF00BFCA
:1035B00000220C2107A8FFF706F962798A3A07ABC7
:1035C00013F8121062798A3A33F81220100A4A4628
:1035D000FFF7E4F8207901281AD1912D18DC002694
:1035E00006E006F10801C8B2002100F057FA761C87
:1035F000082EF6D361798A39C8B201231A464946A2
:10360000FFF7A6F861798239C8B2494600F046FA58
:1036100000E000BF00BF96E095E0042D04D0072D28
:1036200008D0082D0DD106E04A460B210020FFF7F7
:10363000B5F807E006E04A460B210220FFF7AEF896
:1036400000E000BF00BF7EE0A5F1200008280DD2F9
:10365000DFE800F00405060708090A0B00BF00BFF9
:1036600000BF00BF00BF00BF00BF00E000BF00BF41
:1036700069E0A5F170000B2812D2DFE800F0060720
:1036800008090A0B0C0D0E0F100000BF00BF00BF91
:1036900000BF00BF00BF00BF00BF00BF00BF00BF32
:1036A00000BF50E04FE06079012849D1A07920B1F6
:1036B00002281DD0032840D123E0654E0EB900201A
:1036C00045E50020306070603081AA20307061488C
:1036D000007870700720B070C020F0700120707109
:1036E0003046FEF78DFC08213046FEF737FD26E018
:1036F0000020FDF722FD0120FFF702FDFEF79DFEF1
:103700001DE0534E0EB9002021E5002030607060AE
:103710003081AA2030704F48007870700720B07058
:103720008020F070FDF753F870713046FEF768FCAA
:1037300008213046FEF712FD01E0002007E500BF3A
:1037400001E0002003E500BF012000E52DE9F0477E
:1037500007464FF0010817B90020BDE8F0873D6823
:10376000687800F0F006802E02D14FF000080CE0DF
:10377000902E01D0B02E06D1E87800F07F0020B95D
:103780004FF0000801E00020E7E7AC78202C01DBD7
:10379000622C01DD0020E0E7A4F11F00C4B2012C7F
:1037A00026DB432C24DA601E2B4931F8109009F0F7
:1037B000FF014FEA19204246FEF7F0FF0F2C09DB0C
:1037C000162C07DCA4F10F00C4B24146204600F0DD
:1037D00065F90CE01B2C0ADB222C08DCA4F11B0091
:1037E000C4B204F10801C8B2414600F057F900BF65
:1037F0000120B2E770B504460CB9002070BD256801
:1038000004212846FEF774FC0120F7E710B50446B2
:10381000A07A012803D12046FFF793FC10BDA07ABF
:10382000082803D12046FFF791FFF7E70020F5E7CE
:103830000A48006800F4E06009490843001D074990
:103840000860BFF34F8F00BFFEE7000050A10008E3
:10385000FC0C0020B40000204CA000080CED00E09F
:103860000000FA0500BFFEE70246914201D3881A24
:103870007047C2F1FF300844FAE710B5FDF784FC49
:1038800000F0E8FF0F48007800F00F000F2812D179
:103890000D48007800F003043CB1012C02D1FDF783
:1038A00014F802E0022C00D000BF07480078401C4A
:1038B0000549087000BF03480068401C01490860C2
:1038C00010BD0000080100201001002010B50121EA
:1038D000080702F068FF01217D2002F057FF10BDAC
:1038E00010B50121474802F000FD10BD30B5464833
:1038F00000684FF47A72B0FBF2F1B1F1807F00D32F
:103900001DE021F07F40401E4FF0E0225061501733
:103910000F22002807DA13071D0E3C4B00F00F049E
:10392000241F1D5503E013071C0E394B1C5400BF08
:1039300000204FF0E02290610720106100BF30BDF1
:1039400010B586B004460121880402F02CFF002146
:10395000304803F05CFF02A803F036FF029402A98E
:103960002C4803F0C8FE01212A4803F050FF4FF411
:103970008060ADF8040003208DF8060018208DF853
:10398000070001A9244802F0DFFB4FF40060ADF806
:10399000040004208DF8070001A91F4802F0D4FBA1
:1039A00006B010BD10B586B004460121480402F0EF
:1039B000FAFE0021194803F02AFF02A803F004FFD1
:1039C000029402A9154803F096FE0121134803F062
:1039D0001EFF0420ADF8040003208DF80600182017
:1039E0008DF8070001A90E4802F0AEFB0820ADF8E3
:1039F000040004208DF8070001A9094802F0A4FB87
:103A000006B010BD000230000000002018ED00E0FC
:103A100000E400E000480040000C01400044004089
:103A20000008014008B503208DF8020010208DF831
:103A300003000120ADF800006946404802F084FB15
:103A4000002201213D4802F030FC0220ADF80000C8
:103A500069463A4802F078FB00220221374802F01A
:103A600024FC0420ADF800006946344802F06CFBE9
:103A700000220421314802F018FC08BD10B530487E
:103A8000002101802F480180002202212B4802F0F2
:103A90000CFC10BD2A4800210180704730B5024659
:103AA0000B46102A00DB30BDD01002F007013BB9F5
:103AB000234C245C01258D40AC43214D2C5406E061
:103AC0001F4C245C01258D402C431D4D2C5400BF00
:103AD000E9E72DE9F041022219491A4806F014F8E5
:103AE00048B301220221154802F0DFFB0F241BE03E
:103AF000E51004F007061248405D304100F0010077
:103B000008B1012700E000273A4604210B4802F0E3
:103B1000CCFB00220121094802F0C7FB012211461B
:103B2000064802F0C2FB641E002CE1DA0548044995
:103B30000988018000BFBDE8F08100000018014045
:103B4000110100201301002010B50346002004E0FD
:103B5000141A641E0C5D1C54401C9042F8D310BD16
:103B600030B502460B464FF0FF3002B103B930BD0D
:103B7000002108E0C4B2555C6C40734D55F82440F8
:103B800084EA1020491C9942F4D3C04300BFEEE7F9
:103B900070B502460C46FF25FF2312B94FF6FF70A1
:103BA00070BD09E012F8010B80EA03016748405C30
:103BB00080EA05036648455C201EA4F10106B4B204
:103BC000F0D143EA0520EBE72DE9F04F03460C4620
:103BD000944600221D680026DFF87891012C57DDFD
:103BE000601E53F82020342090FBF4F000F106080A
:103BF00046E04E44C6F3810700211FE0481C53F8FD
:103C00002050500980EA85004FEAD50A8AEA021A54
:103C1000504486EA050A01F0030B8BEA070B5CF8B7
:103C20002BB08BEA020BDA4480EA0A0053F821A099
:103C3000504443F8210053F82120491C601E88425B
:103C4000DCDC1D68500980EA85004FEAD50A8AEA63
:103C5000021A824486EA050001F0030B8BEA070B87
:103C60005CF82BB08BEA020B58448AEA000A601E0B
:103C700053F820008244601E43F820A053F820200F
:103C8000B8F10000A8F10108B3DC0020BDE8F08F16
:103C9000B4F1FF3F56DA6442601E53F8202034200E
:103CA00090FBF4F000F1060808FB09F646E0C6F3C5
:103CB0008107611E20E0481E53F82020500980EA49
:103CC00085004FEAD50A8AEA021A504486EA050AB4
:103CD00001F0030B8BEA070B5CF82BB08BEA020BAD
:103CE000DA4480EA0A0053F821A0AAEB000043F866
:103CF000210053F82150491E0029DCDC601E53F8D6
:103D00002020500980EA85004FEAD50A8AEA021A83
:103D1000504486EA050A01F0030B8BEA070B5CF8B6
:103D20002BB08BEA020BDA4480EA0A00D3F800A039
:103D3000AAEB000018601D68A6EB0906002EB6D19C
:103D40000020A3E70120A1E768A1000868A50008FA
:103D500068A60008B979379E2DE9F04707460C465A
:103D6000164698464FF0000917B10CB1002E03DA41
:103D70004FF0FF30BDE8F087FCF72CFA814606EBE8
:103D80004600C100204605F0ABFF1421384605F07F
:103D9000A7FF002510E005EB450004EBC000A0F8EC
:103DA0000C8005EB450004EBC000183005EB450125
:103DB00004EBC10108616D1C701EA842EBDC002001
:103DC00005EB450104EBC10108617E603C6048469B
:103DD000FCF704FA0020CDE770B504460026002564
:103DE0000CB9002070BDFCF7F5F90646206828B133
:103DF0002568286920600020686128613046FCF74A
:103E0000EDF92846EEE72DE9F04106460C46174647
:103E100006B11CB94FF0FF30BDE8F0814FF000084B
:103E200017B106F10C0001E006F110000546FCF7A1
:103E3000D1F98046286818B92C606461246109E0D2
:103E400028682061286840690461286840696061C9
:103E5000286844614046FCF7C1F90020DCE72DE901
:103E6000F04105460F464FF00008002615B9002026
:103E7000BDE8F08117B105F10C0001E005F110007B
:103E80000446FCF7A7F98046206808B9002618E028
:103E90002668206800692168884202D100202060DD
:103EA0000CE0206840692168096948612068006960
:103EB00021684969086120680069206000207061FC
:103EC00030614046FCF78AF93046D1E770B50446C8
:103ED0000D4604B115B94FF0FF3070BD0026FCF758
:103EE00079F906462068286125603046FCF776F9A6
:103EF0000020F2E72DE9F04104460D461646002762
:103F000004B11DB94FF0FF30BDE8F081FCF762F954
:103F100007461821204605F0E3FE25607008A060E2
:103F2000A068284460603846FCF758F90020EBE7A9
:103F30002DE9F04704460F4615464FF00008C146EC
:103F400004B11FB94FF0FF30BDE8F087FCF742F92C
:103F500080466169A068461AB54202D94FF0FF3920
:103F600029E0E0682844A16888420FD9D4E9020119
:103F7000461AE268216888183246394605F00FFE75
:103F8000AA1BB919206805F00AFE06E0E26821685C
:103F900088182A46394605F002FEE0682844E060A9
:103FA000D4E90210B0FBF1F201FB1200E06060699D
:103FB0002844606100BF4046FCF710F94846C3E75B
:103FC0002DE9F04104460D46002714B90020BDE854
:103FD000F081606908B90020F9E7FCF7FBF80746B3
:103FE000D4E904010844A168884211D92169A06874
:103FF000461A23692268D1183246606805F0CFFD61
:1040000063699A1BD4E90013981905F0C8FD06E00E
:104010002669236899196269606805F0C0FDD4E9D2
:10402000040108442061A1682069B0FBF1F201FBA2
:10403000120020610DB1606928600020606138467F
:10404000FCF7CCF86068C2E72DE9F041064604278A
:1040500001F05BFD01F0C5FF04466EB1FE4961EA67
:1040600004050846A043884217D001F018FE2846F0
:1040700001F0D5FE00F00BFBF7482043C543F6499D
:10408000C94344EA0100401C38B101F008FE15B1F3
:10409000284601F0C4FE00F0FAFA01F042FDBDE846
:1040A000F0812DE9F74F044690460426DDF804B070
:1040B00028F00300404502D0701FBDE8FE8FA40A1F
:1040C000A40204EB080901F020FD08F2FF304FEADA
:1040D000902A352001F0B4FF002707E04FF48061FB
:1040E00001FB074001F056FD06467F1C574501D2F3
:1040F000042EF3D0042E00D026E02546002708E049
:1041000038467F1C5BF82010284601F013FE064657
:104110002D1D4D4501D2042EF2D0042E00D013E007
:1041200025460426002708E02A6838467F1C5BF8ED
:104130002000824200D002262D1D4D4501D2042EC2
:10414000F2D101F0E2FC00BF042E02D04FF0FF30AC
:10415000B3E70020B1E770B5044634B10C252A4618
:10416000BE49204605F060FD00BF70BD2DE9F0415D
:1041700007460026BA4D002415E055F82400401CDF
:1041800078B9601C55F82000401C50B9A01C55F8A7
:104190002000401C28B9E01C55F82000401C00B944
:1041A00003E0361D641CBE42E7D300BF3146AC4875
:1041B000FFF7D6FCBDE8F0812DE9FF4104460D462E
:1041C00016461F4604B125B94FF0FF3004B0BDE8D4
:1041D000F08195E807008DE8070003964FB19DE850
:1041E0000F0084E80F006A4604212046FFF7ECFC2C
:1041F00006E09C4820606A4601212046FFF7E4FC67
:104200000020E3E72DE9F0438BB006460F46154644
:1042100026B94FF0FF300BB0BDE8F0834FF0040932
:10422000E84696E80F0001AC0FC417B18E48009025
:1042300009E08C4800900020CDE9065001AA022137
:1042400006A8FFF7C1FC00200890002405E058F8FC
:104250002410089848400890641C082CF7D301F0FB
:1042600054FC342001F0ECFE804801F093FC8146C0
:10427000E846002410E058F824107C4A02EB840041
:1042800001F058FD8146B9F1040F04D001F049FC5A
:104290004FF0FF30BFE7641C0A2CECD301F041FC67
:1042A0000020B8E72DE9F04387B0054688466F4CFB
:1042B0006F480068401CB0B96E48FFF74CFF4FF0E4
:1042C000FF30FFF753FF6A49086000230846694939
:1042D00002686948FFF770FF012365486549026875
:1042E0006648FFF769FF6648007800287CD15D4981
:1042F0002068884203D05C492068884267D1DFF893
:104300006C910027002603E059F826004740761CF0
:10431000082EF9D3206AB84258D152492068884201
:1043200038D1554800686168884224D1D4E9060133
:10433000CDE90401221D6FF0010104A8FFF744FC40
:104340000020DDE90421D2F10302884103D20420D8
:104350004B4908700EE0484B0FCB8DE80F000499D5
:104360004A1C4FF000016846FFF74CFF012044490A
:10437000087000BF2AE0404B0FCBCDE90423CDE904
:1043800002010422002102A8FFF73CFF04203C495F
:1043900008701BE01022211D384805F0B5FB18B944
:1043A00003203749087011E0334BD3E90121186825
:1043B000DB68CDE90413CDE902020422002102A842
:1043C000FFF720FF04202E49087000BF0CE02A4BA5
:1043D0000FCB02AE0FC60022114602A8FFF712FF54
:1043E00001202749087000BF25480078012831D1F5
:1043F0002448016824480068FFF736FA44F6206133
:10440000884227D9D4E90601CDE90401201D0FC84F
:104410008DE80F001B4800681B490860221D6FF0E3
:10442000010104A8FFF7D0FB0498421C4FF00001E3
:104430006846FFF7E7FE0020DDE90421D2F1030220
:10444000884102D204200E49087015B1414602206D
:10445000A84700BF0A4819E0F8FFFF01E8F7FF1F6F
:104460000030000867452301EFCDAB8900900108BB
:1044700020010020080D0020240D0020140D002034
:1044800018010020080100201C01002000780428E9
:1044900021D11022211D844805F036FB28B90320C4
:1044A0008249087007B0BDE8F08315B14146042089
:1044B000A8477F4801687F480068FFF7D5F944F6B0
:1044C0002061884207D97A4800687A49086015B1A6
:1044D00041460520A84700BFE4E770B5044604251F
:1044E00001F013FB00BF342001F0AAFD01F0D7FB5F
:1044F0000546042D00D005E021466F4801F06BFC15
:10450000054600BF00BF01F00CFB042D01D10020C7
:1045100070BD4FF0FF30FBE767480078704770B51B
:1045200086B0142101A805F0DBFB002501AE1422A2
:10453000624901A805F078FBBDF804004AF2A551D4
:10454000884200D02BE0002404E036F81400284410
:1045500085B2641C082CF8D3BDF81400A8421DD104
:10456000BDF8060056490880BDF808005549088086
:10457000BDF80A0054490880BDF80C005349088072
:10458000BDF80E0052490880BDF81000514908805E
:10459000BDF812005049087006B070BD00BF082079
:1045A0004749088040F236604649088040F6F610D8
:1045B000454908802820454908804FF47D604449DA
:1045C000088030204349088001204349087000BF1B
:1045D000E2E72DE9F04186B04FF00408142101A86C
:1045E00005F07EFB002501AE344F4AF2A550ADF830
:1045F000040033480088ADF8060032480088ADF862
:10460000080031480088ADF80A0030480088ADF84D
:104610000C002F480088ADF80E002E480088ADF839
:1046200010002D480078ADF81200002404E036F8A0
:104630001400284485B2641C082CF8D3ADF814503B
:1046400001F063FA342001F0FBFC1C4801F0A2FAEF
:104650008046002410E036F81410384601F09DFB27
:104660008046B8F1040F05D001F05BFA002006B0D7
:10467000BDE8F081BF1C641C092CECD301F051FA99
:104680000120F4E7024610880B88C01A70471348CF
:10469000006800F4E06012490843001D0F490860FB
:1046A000BFF34F8F00BFFEE7140D0020180100205C
:1046B000080100201C01002004F8FF1F00F0000882
:1046C00016000020180000201A0000201C00002006
:1046D0001E00002020000020BA0000200CED00E0A9
:1046E0000000FA0500B587B004A802F0B3FC6846E4
:1046F00002F0B9FC0121C80202F048F88220ADF8AE
:10470000140040F26710ADF810000020ADF816005C
:10471000ADF8120004A9824802F070F90121804826
:1047200002F08EFF6020ADF800000120ADF802001D
:104730006420ADF806000220ADF80800694678480C
:1047400002F099F90121764802F0C0FC07B000BDE3
:1047500008B54FF48070ADF8000018208DF8030004
:1047600003208DF8020069466E4801F0EDFC08BD9B
:1047700008B54FF48070ADF8000010208DF80300EC
:1047800003208DF802006946664801F0DDFC002236
:104790004FF48071634801F088FD08BD10B5FFF744
:1047A000E7FFFFF79FFF10BD2DE9F04104465E498A
:1047B000A0680968FFF758F80546A088E17800FB73
:1047C00001F6AE4218D2607808B9012000E000205E
:1047D0006070074637B10121514802F06BFCFFF7CA
:1047E000B7FF05E000214E4802F064FCFFF7C0FF70
:1047F000E078401CE07000BFE078A17888420CDDD2
:10480000002020700021464802F054FCFFF7B0FF62
:1048100000204649087046490870BDE8F08170B52F
:1048200004460D461646012020706806000EA07052
:104830000120E070A6803C480068A0600120607004
:104840000121374802F036FCFFF782FF70BD37497F
:104850000870704710B53748007800B334480078C6
:10486000012807D0022804D0032804D0042807D147
:1048700002E000BF00BF00BF2E48FFF795FF0DE02C
:104880000021274802F016FCFFF772FF002029499B
:104890000870264908702649087000BF3FE0244888
:1048A000007822490978884239D020480078204988
:1048B00008700846007801280DD0022804D003288B
:1048C00010D004281CD114E04FF4FA7203211948C7
:1048D000FFF7A5FF22E04FF47A7201211548FFF798
:1048E0009EFF1BE04FF4FA7201211248FFF797FF79
:1048F00014E04FF4FA7202210E48FFF790FF0DE02A
:104900000021074802F0D6FBFFF732FF00200949DB
:104910000870064908700649087000BF00BF10BD46
:10492000002C014000080140080100202501002062
:1049300024010020340D002000B587B00121880437
:1049400001F031FF03A802F03FFF4FF496500390AF
:1049500003A9A94802F0CFFE0121A74802F057FFA2
:104960004FF48060ADF8080003208DF80A0018208D
:104970008DF80B0002A9A14801F0E6FB4FF400609E
:10498000ADF8080004208DF80B0002A99B4801F047
:10499000DBFB27208DF8040004208DF805000020A3
:1049A0008DF8060001208DF8070001A800F045FCF5
:1049B000012240F22551904802F035FF01210846BE
:1049C00001F0D7FE43F290008D49C8618A48001D6E
:1049D000486200200862886201228021864802F035
:1049E00047FF07B000BD38B58348048804F02000B5
:1049F00050B18148001D0088C0B200900122694674
:104A00008048FFF795FA00BF38BD10B5052308228E
:104A10007D497E48FFF7A0F940227D497948FFF79C
:104A200069FA40227B497C48FCF79EFEFFF784FF31
:104A300010BDF0B585B0054600BF002700200490EA
:104A400004A97048FFF7BCFA074607B92BE027E036
:104A50000026002003900290002402A903ABCDE9B8
:104A6000001039466C48049AFCF790FE064606B9D9
:104A700017E06648FFF7B0F9044614B9304604F071
:104A8000FEFF266003986060012020720298A072E9
:104A9000012221465D48FFF7B6F90020049000BFCF
:104AA000D6E700BF00BF00BF00BF00245B4800780E
:104AB000E0B15348006800F0200010B905B148E0AB
:104AC00048E04D48008800F0400010B905B140E0D2
:104AD00040E010204A4948605148007A18B15049D6
:104AE000086804F0CCFF00204C49087000214748BA
:104AF000FFF7B5F904465CB36068002801DD206863
:104B000048B9207A20B1206810B1206804F0B7FFBE
:104B100005B11EE01EE03A48C06920F001003849A6
:104B2000C86160680862206888620846C06940F011
:104B30000100C8610120394908701822214638480F
:104B400005F072F821463148FFF7C0F905B100E0E1
:104B500000E0AAE700BF00BF002401212B48FFF7B7
:104B60007EF9044614B1204605B0F0BD00BF002018
:104B7000FAE710B5044644B1207A10B1206804F079
:104B80007EFF21462148FFF7A1F910BD10B504466C
:104B90001CB121461D48FFF799F910BD4020704710
:104BA0002DE9F04105460E4690461F46002415B9F2
:104BB000601EBDE8F0811548FFF70EF9044614B9F0
:104BC0004FF0FF30F5E7256067602672002221462E
:104BD0000E48FFF718F90020EBE710B5044604B9BA
:104BE00010BD0020A0810C2060812146024802F007
:104BF00082FD00BFF4E7000000480040000C0140C7
:104C000000000240540E0020400D0020000E002045
:104C1000140E00206C0E0020AC0E00202601002097
:104C2000C40E002010B502231022AC49AC48FFF797
:104C300093F84022AB49AC48FFF75CF9002003F041
:104C4000CFFAAA48046800BFA84801682046FEF7CA
:104C50000BFE6428F8D3012003F0C2FA03F063FAD4
:104C600003F01EFA04F0AEF810BD70B504460D4610
:104C70002A4621469C48FFF75BF970BD9C480068B6
:104C8000052801D1012070470020FCE72DE9F04103
:104C900005460E46174698460024FFF7EFFF10B969
:104CA000601EBDE8F08115B94FF0FF30F9E78C4880
:104CB000FFF792F8044614B94FF0FF30F1E7256092
:104CC000C4F804802672A781002221468448FFF799
:104CD0009AF80020E5E72DE9F04105460C46164616
:104CE000FFF7CCFF08B9BDE8F081032E02D0042EF7
:104CF00000D0F8E7ADB1A4B1204604F091FE07461C
:104D000077B122462946384604F049FF2346324609
:104D100001213846FFF7BAFF10B1384604F0AFFE64
:104D200000BF00BFDFE7F8B5054600BF0027002041
:104D3000009069466C48FFF743F9074607B928E039
:104D400022E00024042004F06BFE064606B91EE0B3
:104D50006348FFF741F804461CB9304604F08FFE63
:104D600015E0386830602660042060600120207201
:104D70000820A072012221465948FFF744F8009804
:104D8000001F00903F1D00BF00980428D9DA00BF23
:104D900000BF00BF00BF00245648007808B3544845
:104DA0000068052813D154488089032807D10120C1
:104DB00004F09AFA20280AD005B169E069E00220DF
:104DC00004F092FA202802D005B161E061E04A487F
:104DD000007A18B14849086804F051FE002045499E
:104DE000087000213E48FFF73AF80446002C4ED0E8
:104DF0006068002801DD206848B9207A20B1206869
:104E000010B1206804F03BFE05B141E041E03848B4
:104E1000006805280AD0207A10B1206804F02FFE1F
:104E200021462F48FFF752F885B331E00120314980
:104E3000087018222146304804F0F6FE2E4880897A
:104E4000032808D18120D4E9001204F0B7FD012025
:104E500004F05CFA14E028488089042808D18220F4
:104E6000D4E9001204F0AAFD022004F04FFA07E092
:104E7000207A10B1206804F002FE00201D4908705D
:104E800021461748FFF722F805B101E0FFE700E0EF
:104E900081E700BF00BF002401211148FEF7DFFFBA
:104EA00004460CB12046F8BD00BF0020FBE710B55A
:104EB000044644B1207A10B1206804F0E0FD214698
:104EC0000748FFF703F810BD10B504461CB1214692
:104ED0000348FEF7FBFF10BD00207047DC0E0020EA
:104EE0005C10002070100020B0100020080100208D
:104EF0003C02002027010020C810002008B5022035
:104F0000ADF8000003208DF8020010208DF803009A
:104F10006946BB4801F018F90220B9491031086010
:104F200008BD00B587B00121480401F03CFC03A88E
:104F300002F04AFC4FF49650039003A9B14802F0E6
:104F4000DAFB0121AF4802F062FC0420ADF8080052
:104F500003208DF80A0018208DF80B0002A9AA483A
:104F600001F0F2F80820ADF8080004208DF80B00DD
:104F700002A9A54801F0E8F826208DF804000420D5
:104F80008DF8050000208DF8060001208DF807003F
:104F900001A800F052F9012240F22551994802F08F
:104FA00042FC0121084601F0E4FB43F290009749DE
:104FB00008609448001D95498039C1F88800002098
:104FC0009249091D086091498039C1F88C0001227D
:104FD00080218C4802F04CFC07B000BD38B58948F0
:104FE000048804F0200050B18648001D0088C0B23B
:104FF0000090012269468648FEF79AFF00BF38BD3F
:1050000010B50523082283498348FEF7A5FE4022F8
:1050100082497F48FEF76EFF402281498148FCF7B4
:10502000A3FBFFF77EFF10BDF0B585B0054600BFBE
:1050300000270020049004A97548FEF7C1FF074629
:1050400007B92BE027E000260020039002900024FF
:1050500002A903ABCDE9001039467248049AFCF767
:1050600095FB064606B917E06B48FEF7B5FE044609
:1050700014B9304604F003FD2660039860600120F7
:1050800020720298A072012221466348FEF7BBFEFF
:105090000020049000BFD6E700BF00BF00BF00BFE4
:1050A000002461480078F8B158488038006800F062
:1050B000007010B905B151E051E05248008800F08D
:1050C000400010B905B149E049E04FF080704F4908
:1050D000803948605548007A18B15449086804F08E
:1050E000CEFC00205049087000214B48FEF7B7FE67
:1050F00004468CB36068002801DD206848B9207A36
:1051000020B1206810B1206804F0B9FC05B125E099
:1051100025E03E48006820F001003C490860091D78
:1051200060680860394980392068C1F88C000846F9
:10513000D0F8800040F001003449086001203A496D
:10514000087018222146394804F06EFD2146324885
:10515000FEF7BCFE05B101E0FFE700E0A0E700BFFD
:1051600000BF002401212C48FEF779FE044614B14B
:10517000204605B0F0BD00BF0020FAE710B5044698
:1051800044B1207A10B1206804F079FC214622480D
:10519000FEF79CFE10BD10B504461CB121461E480A
:1051A000FEF794FE10BD402070472DE9F041054602
:1051B0000E4690461F46002415B9601EBDE8F081DA
:1051C0001548FEF709FE044614B94FF0FF30F5E725
:1051D000256067602672002221460F48FEF713FE05
:1051E0000020EBE710B5044604B910BD0020A081F3
:1051F0000C2060812146034802F07DFA00BFF4E7ED
:10520000000C0140004400400008014080000240C2
:10521000F4110020E0100020A0110020B4110020A3
:105220000C1200204C1200202801002064120020E3
:1052300031490143314A1160704770B500210023A4
:105240000F22C47804B32D4C246804F4E064C4F540
:10525000E064210AC1F10403CA40447804FA03F16E
:105260008478144021430901254C0678A15504781F
:1052700004F01F050124AC4005786D11AD0005F167
:10528000E025C5F8004109E0047804F01F05012479
:10529000AC401C4D0678761145F8264070BD1A4A80
:1052A0000A400243154B1B1F1A60704739B1134A5D
:1052B000121D12680243114B1B1D1A6006E00F4AB3
:1052C000121D126882430D4B1B1D1A607047042883
:1052D00008D14FF0E021096941F004014FF0E022CC
:1052E000116107E04FF0E021096921F004014FF05E
:1052F000E0221161704700000000FA050CED00E0AB
:1053000000E400E080E100E080FFFF1F10B50446EC
:10531000FA48844208D10121401501F051FA0021D8
:10532000601501F04DFA17E0F548844208D10121DB
:10533000001501F045FA0021201501F041FA0BE0BB
:10534000F048844208D10121C80301F039FA002154
:105350004FF4004001F034FA10BD30B50246002091
:1053600000235068E84C20400D790C6844EA05247D
:10537000204350609068E54C2040D1E902542C4312
:105380004D7944EA450420439060D06A20F47000CF
:105390000C7C641EE4B2234340EA0350D06230BD6B
:1053A00000210160017141718160C16001210174BE
:1053B000704721B1826842F00102826003E0826896
:1053C00022F001028260704721B1826842F480724B
:1053D000826003E0826822F480728260704710B5B8
:1053E0000023CBB21AB144681C43446002E0446815
:1053F0009C43446010BD816841F0080181607047A2
:10540000014600208A6802F008020AB1012000E08B
:1054100000207047816841F00401816070470146B7
:1054200000208A6802F004020AB1012000E0002096
:10543000704721B1826842F4A002826003E0826872
:1054400022F4A00282607047014600208A6802F4BC
:1054500080020AB1012000E00020704710B50A4622
:1054600000210023416821F46041531E41EA433189
:10547000416010BD21B1426842F40062426003E025
:10548000426822F4006242607047F0B504460D465F
:1054900000200021092D11DDE068A5F10A0606EBC8
:1054A0004607072606FA07F18843A5F10A0606EB28
:1054B000460603FA06F10843E0600CE0206905EBBC
:1054C0004507072606FA07F1884305EB450603FA68
:1054D00006F108432061072A0FDA606B561E06EBBF
:1054E00086071F2606FA07F18843561E06EB860636
:1054F00005FA06F10843606322E00D2A0FDA206BFB
:10550000D61F06EB86071F2606FA07F18843D61F2B
:1055100006EB860605FA06F10843206310E0E06A10
:10552000A2F10D0606EB86071F2606FA07F188434F
:10553000A2F10D0606EB860605FA06F10843E062C5
:10554000F0BD21B1826842F48012826003E082687B
:1055500022F48012826070470146C86C80B27047A6
:1055600066484C300068704721B1426842F480625E
:10557000426003E0426822F480624260704721B1D9
:10558000426842F48052426003E0426822F4805252
:10559000426070470A460021816821F4E0411143CE
:1055A0008160704721B1826842F40042826003E06A
:1055B000826822F400428260704721B1826842F41E
:1055C0000212826003E0826822F402128260704755
:1055D000014600208A6802F400120AB1012000E0AE
:1055E00000207047F0B50446154600200022002632
:1055F000092911DDE068A1F10A0707EB470C07272D
:1056000007FA0CF29043A1F10A0707EB470703FAE8
:1056100007F21043E0600CE0206901EB410C072722
:1056200007FA0CF2904301EB410703FA07F210432B
:105630002061A06BC0F30156EF1C06F1010CA7EB33
:105640000C0707EB870C1F2707FA0CF29043EF1C9F
:1056500006F1010CA7EB0C0707EB870701FA07F22D
:105660001043A063F0BD10B50A4600210023816BF2
:1056700021F44011531E41EA0351816310BD08B566
:10568000002300930090009B0B440093009B1A6042
:1056900008BD08B5024600200090009201F12800E4
:1056A000009B184400900098006880B208BD0A462C
:1056B00000214168164B1940114341607047416217
:1056C000826270470A460021416821F01F011143A0
:1056D0004160704740B109490831096841F400014F
:1056E000064A0832116007E004490831096821F4CC
:1056F0000001024A08321160704700000024014096
:1057000000280140003C0140FFFEF0FFFDF7F1FFE3
:10571000FFFD3FFF0246002013680B400BB1012044
:1057200000E000207047CA430260704770B502462F
:105730000020002300240B125568CEB205EA0604AF
:1057400015681D4015B10CB1012000E0002070BDAE
:1057500000220A12D34303607047000001684FF62D
:10576000FE72114001600021016041608160C160F2
:105770008D49884208D18C490839496841F00F01A8
:10578000894A083A51608AE087491431884208D131
:1057900085490839496841F0F001834A083A516067
:1057A0007DE081492831884208D17F49083949681C
:1057B00041F470617C4A083A516070E07A493C31AA
:1057C000884208D178490839496841F47041764ADD
:1057D000083A516063E074495031884208D17249F7
:1057E0000839496841F470216F4A083A516056E01F
:1057F0006D496431884208D16B490839496841F4E0
:105800007001694A083A516049E067497831884235
:1058100008D165490839496841F07061624A083A1F
:1058200051603CE06149884206D1011F096841F09E
:105830000F01021F116032E05C491431884208D127
:105840005A49091F096841F0F001584A121F1160B6
:1058500025E056492831884208D15449091F096872
:1058600041F47061514A121F116018E04F493C31F8
:10587000884208D14D49091F096841F470414B4ADB
:10588000121F11600BE049495031884207D1474946
:10589000091F096841F47021444A121F11607047C2
:1058A00010B50022026847F6F0739A430C6A8B68C1
:1058B00023430C6923434C6923438C692343CC69FC
:1058C00023434C6A23438C6A23431A430260CB6808
:1058D00043600B6883604B68C36010BD00210160AA
:1058E00041608160C160016141618161C1610162AA
:1058F00041628162704721B1026842F00102026098
:1059000004E002684FF6FE731A40026070471AB155
:1059100003680B43036002E003688B430360704736
:10592000416070470146486880B2704701460020D8
:10593000002201F080531BB11C4B083B1A6802E0A7
:10594000194B083B1A6802EA01030BB1012000E081
:105950000020704700F0805119B11449091F0860F8
:1059600002E01149083948607047014600200022D2
:1059700001F080531BB10D4B083B1A6802E00A4B43
:10598000083B1A6802EA01030BB1012000E0002085
:10599000704700F0805119B10449091F086002E006
:1059A0000149083948607047080002400804024075
:1059B000002044490860091D0860091D0860091D90
:1059C000086041483F4914310860704700213D4953
:1059D0008279002A3AD00A46126803689A430B4635
:1059E0001A600A1D126803689A430B1D1A60027937
:1059F00011440A6803681A430A60324A083212687E
:105A000003689A432F4B08331A601A1D1268036803
:105A10009A432C4B0C331A604279102A0ED11A1F6C
:105A2000126803681A43274B08331A601A1D12685C
:105A300003681A43234B0C331A600DE02149427965
:105A400011440A6803681A430A6005E002791144A8
:105A50000A6803689A430A60704700210160017177
:105A60000C2141710021817170471649103109687C
:105A70000143144A10321160704701460020114A58
:105A8000143212680A400AB1012000E00020704779
:105A90000C49143108607047014600200022094B70
:105AA0001B6803EA0102074B14331B680B4013B158
:105AB0000AB1012000E0002070470249143108605B
:105AC0007047000000040140FFFF0F000146002066
:105AD000FE4A106800F03800084310607047FB4928
